{
  "contractName": "votelottery",
  "abi": [
    {
      "constant": true,
      "inputs": [
        {
          "name": "",
          "type": "uint256"
        }
      ],
      "name": "keys",
      "outputs": [
        {
          "components": [
            {
              "name": "X",
              "type": "uint256"
            },
            {
              "name": "Y",
              "type": "uint256"
            }
          ],
          "name": "g1",
          "type": "tuple"
        },
        {
          "components": [
            {
              "name": "X",
              "type": "uint256[2]"
            },
            {
              "name": "Y",
              "type": "uint256[2]"
            }
          ],
          "name": "g2",
          "type": "tuple"
        }
      ],
      "payable": false,
      "stateMutability": "view",
      "type": "function"
    },
    {
      "constant": true,
      "inputs": [
        {
          "name": "",
          "type": "uint256"
        }
      ],
      "name": "candidates",
      "outputs": [
        {
          "name": "name",
          "type": "string"
        },
        {
          "name": "votes",
          "type": "uint256"
        }
      ],
      "payable": false,
      "stateMutability": "view",
      "type": "function"
    },
    {
      "constant": true,
      "inputs": [],
      "name": "at_least_one_claim",
      "outputs": [
        {
          "name": "",
          "type": "bool"
        }
      ],
      "payable": false,
      "stateMutability": "view",
      "type": "function"
    },
    {
      "constant": true,
      "inputs": [
        {
          "name": "",
          "type": "uint256"
        }
      ],
      "name": "tickets",
      "outputs": [
        {
          "name": "",
          "type": "address"
        }
      ],
      "payable": false,
      "stateMutability": "view",
      "type": "function"
    },
    {
      "constant": true,
      "inputs": [],
      "name": "vote_is_over",
      "outputs": [
        {
          "name": "",
          "type": "bool"
        }
      ],
      "payable": false,
      "stateMutability": "view",
      "type": "function"
    },
    {
      "constant": true,
      "inputs": [],
      "name": "claim_is_over",
      "outputs": [
        {
          "name": "",
          "type": "bool"
        }
      ],
      "payable": false,
      "stateMutability": "view",
      "type": "function"
    },
    {
      "constant": true,
      "inputs": [],
      "name": "vote_started",
      "outputs": [
        {
          "name": "",
          "type": "bool"
        }
      ],
      "payable": false,
      "stateMutability": "view",
      "type": "function"
    },
    {
      "constant": true,
      "inputs": [],
      "name": "owner",
      "outputs": [
        {
          "name": "",
          "type": "address"
        }
      ],
      "payable": false,
      "stateMutability": "view",
      "type": "function"
    },
    {
      "constant": true,
      "inputs": [
        {
          "name": "",
          "type": "address"
        }
      ],
      "name": "voters",
      "outputs": [
        {
          "name": "canVote",
          "type": "bool"
        },
        {
          "name": "canClaim",
          "type": "bool"
        },
        {
          "name": "hashed_ticket",
          "type": "bytes32"
        }
      ],
      "payable": false,
      "stateMutability": "view",
      "type": "function"
    },
    {
      "constant": false,
      "inputs": [
        {
          "name": "_newOwner",
          "type": "address"
        }
      ],
      "name": "transferOwnership",
      "outputs": [],
      "payable": false,
      "stateMutability": "nonpayable",
      "type": "function"
    },
    {
      "inputs": [],
      "payable": false,
      "stateMutability": "nonpayable",
      "type": "constructor"
    },
    {
      "payable": true,
      "stateMutability": "payable",
      "type": "fallback"
    },
    {
      "anonymous": false,
      "inputs": [
        {
          "indexed": true,
          "name": "name",
          "type": "string"
        },
        {
          "indexed": true,
          "name": "votes",
          "type": "uint256"
        }
      ],
      "name": "VoteResult",
      "type": "event"
    },
    {
      "anonymous": false,
      "inputs": [
        {
          "indexed": false,
          "name": "_address",
          "type": "address"
        },
        {
          "indexed": false,
          "name": "_amount",
          "type": "uint256"
        }
      ],
      "name": "winnerResult",
      "type": "event"
    },
    {
      "anonymous": false,
      "inputs": [
        {
          "indexed": true,
          "name": "previousOwner",
          "type": "address"
        }
      ],
      "name": "OwnershipRenounced",
      "type": "event"
    },
    {
      "anonymous": false,
      "inputs": [
        {
          "indexed": true,
          "name": "previousOwner",
          "type": "address"
        },
        {
          "indexed": true,
          "name": "newOwner",
          "type": "address"
        }
      ],
      "name": "OwnershipTransferred",
      "type": "event"
    },
    {
      "constant": false,
      "inputs": [
        {
          "name": "p1x",
          "type": "uint256"
        },
        {
          "name": "p1y",
          "type": "uint256"
        },
        {
          "name": "p2x1",
          "type": "uint256"
        },
        {
          "name": "p2x2",
          "type": "uint256"
        },
        {
          "name": "p2y1",
          "type": "uint256"
        },
        {
          "name": "p2y2",
          "type": "uint256"
        }
      ],
      "name": "addKey",
      "outputs": [],
      "payable": false,
      "stateMutability": "nonpayable",
      "type": "function"
    },
    {
      "constant": false,
      "inputs": [],
      "name": "renounceOwnership",
      "outputs": [],
      "payable": false,
      "stateMutability": "nonpayable",
      "type": "function"
    },
    {
      "constant": true,
      "inputs": [],
      "name": "balance",
      "outputs": [
        {
          "name": "",
          "type": "uint256"
        }
      ],
      "payable": false,
      "stateMutability": "view",
      "type": "function"
    },
    {
      "constant": false,
      "inputs": [
        {
          "name": "candidate_name",
          "type": "string"
        }
      ],
      "name": "addCandidate",
      "outputs": [],
      "payable": false,
      "stateMutability": "nonpayable",
      "type": "function"
    },
    {
      "constant": false,
      "inputs": [
        {
          "name": "new_voter",
          "type": "address"
        },
        {
          "name": "_hashed_ticket",
          "type": "bytes32"
        }
      ],
      "name": "addVoter",
      "outputs": [],
      "payable": false,
      "stateMutability": "nonpayable",
      "type": "function"
    },
    {
      "constant": false,
      "inputs": [],
      "name": "startVote",
      "outputs": [],
      "payable": false,
      "stateMutability": "nonpayable",
      "type": "function"
    },
    {
      "constant": false,
      "inputs": [],
      "name": "endVote",
      "outputs": [],
      "payable": false,
      "stateMutability": "nonpayable",
      "type": "function"
    },
    {
      "constant": false,
      "inputs": [
        {
          "name": "ticket",
          "type": "uint256"
        }
      ],
      "name": "claimTicket",
      "outputs": [],
      "payable": false,
      "stateMutability": "nonpayable",
      "type": "function"
    },
    {
      "constant": false,
      "inputs": [],
      "name": "endClaim",
      "outputs": [],
      "payable": false,
      "stateMutability": "nonpayable",
      "type": "function"
    },
    {
      "constant": false,
      "inputs": [
        {
          "name": "candidate_",
          "type": "uint256"
        },
        {
          "name": "p1x",
          "type": "uint256"
        },
        {
          "name": "p1y",
          "type": "uint256"
        },
        {
          "name": "p2x1",
          "type": "uint256"
        },
        {
          "name": "p2x2",
          "type": "uint256"
        },
        {
          "name": "p2y1",
          "type": "uint256"
        },
        {
          "name": "p2y2",
          "type": "uint256"
        }
      ],
      "name": "vote",
      "outputs": [],
      "payable": false,
      "stateMutability": "nonpayable",
      "type": "function"
    },
    {
      "constant": false,
      "inputs": [
        {
          "name": "_winner",
          "type": "address"
        }
      ],
      "name": "transferTotalEtherToWinner",
      "outputs": [],
      "payable": true,
      "stateMutability": "payable",
      "type": "function"
    }
  ],
  "bytecode": "0x608060405234801561001057600080fd5b50336000806101000a81548173ffffffffffffffffffffffffffffffffffffffff021916908373ffffffffffffffffffffffffffffffffffffffff1602179055506000600560006101000a81548160ff0219169083151502179055506000600560016101000a81548160ff0219169083151502179055506000600560026101000a81548160ff0219169083151502179055506000600560036101000a81548160ff0219169083151502179055506128d8806100cc6000396000f30060806040526004361061011d576000357c0100000000000000000000000000000000000000000000000000000000900463ffffffff1680630cb6aaf1146101be5780630fb116d2146101fc5780633477ee2e14610225578063462e91ec146102635780634c0a6af01461028c5780634df3c0b6146102a357806350b44712146102ce5780637090a9431461030b578063715018a61461033457806375c708981461034b5780637a989a6d146103765780637b162607146103a15780637baa4016146103cc5780638da5cb5b146103e8578063a3ec138d14610413578063b11f936d14610452578063b2c62d461461047b578063b69ef8a814610492578063b9223946146104bd578063d94a9d1b146104d4578063f2fde38b146104fd575b6000809054906101000a900473ffffffffffffffffffffffffffffffffffffffff1673ffffffffffffffffffffffffffffffffffffffff163373ffffffffffffffffffffffffffffffffffffffff1614151561017857600080fd5b60001515600560019054906101000a900460ff16151514151561019a57600080fd5b60001515600560009054906101000a900460ff1615151415156101bc57600080fd5b005b3480156101ca57600080fd5b506101e560048036036101e091908101906123dc565b610526565b6040516101f392919061270d565b60405180910390f35b34801561020857600080fd5b50610223600480360361021e91908101906123dc565b61060b565b005b34801561023157600080fd5b5061024c600480360361024791908101906123dc565b610851565b60405161025a9291906126dd565b60405180910390f35b34801561026f57600080fd5b5061028a6004803603610285919081019061239b565b61091c565b005b34801561029857600080fd5b506102a1610b70565b005b3480156102af57600080fd5b506102b8610c40565b6040516102c5919061268b565b60405180910390f35b3480156102da57600080fd5b506102f560048036036102f091908101906123dc565b610c53565b6040516103029190612647565b60405180910390f35b34801561031757600080fd5b50610332600480360361032d919081019061235f565b610c91565b005b34801561034057600080fd5b50610349610e6f565b005b34801561035757600080fd5b50610360610ef6565b60405161036d919061268b565b60405180910390f35b34801561038257600080fd5b5061038b610f09565b604051610398919061268b565b60405180910390f35b3480156103ad57600080fd5b506103b6610f1c565b6040516103c3919061268b565b60405180910390f35b6103e660048036036103e19190810190612336565b610f2f565b005b3480156103f457600080fd5b506103fd611030565b60405161040a9190612647565b60405180910390f35b34801561041f57600080fd5b5061043a60048036036104359190810190612336565b611055565b604051610449939291906126a6565b60405180910390f35b34801561045e57600080fd5b5061047960048036036104749190810190612405565b611099565b005b34801561048757600080fd5b50610490611203565b005b34801561049e57600080fd5b506104a76112de565b6040516104b49190612736565b60405180910390f35b3480156104c957600080fd5b506104d26112fd565b005b3480156104e057600080fd5b506104fb60048036036104f6919081019061248e565b6113c1565b005b34801561050957600080fd5b50610524600480360361051f9190810190612336565b6115a9565b005b60048181548110151561053557fe5b906000526020600020906006020160009150905080600001604080519081016040529081600082015481526020016001820154815250509080600201604080519081016040529081600082016002806020026040519081016040528092919082600280156105b8576020028201915b8154815260200190600101908083116105a4575b50505050508152602001600282016002806020026040519081016040528092919082600280156105fd576020028201915b8154815260200190600101908083116105e9575b505050505081525050905082565b60011515600560019054906101000a900460ff16151514151561062d57600080fd5b60001515600560029054906101000a900460ff16151514151561064f57600080fd5b60011515600160003373ffffffffffffffffffffffffffffffffffffffff1673ffffffffffffffffffffffffffffffffffffffff16815260200190815260200160002060000160019054906101000a900460ff1615151415156106b157600080fd5b3381604051602001808373ffffffffffffffffffffffffffffffffffffffff1673ffffffffffffffffffffffffffffffffffffffff166c01000000000000000000000000028152601401828152602001925050506040516020818303038152906040526040518082805190602001908083835b6020831015156107495780518252602082019150602081019050602083039250610724565b6001836020036101000a038019825116818451168082178552505050505050905001915050604051809103902060001916600160003373ffffffffffffffffffffffffffffffffffffffff1673ffffffffffffffffffffffffffffffffffffffff16815260200190815260200160002060010154600019161415156107cd57600080fd5b6000600160003373ffffffffffffffffffffffffffffffffffffffff1673ffffffffffffffffffffffffffffffffffffffff16815260200190815260200160002060000160016101000a81548160ff02191690831515021790555080600654186006819055506001600560036101000a81548160ff02191690831515021790555050565b60038181548110151561086057fe5b9060005260206000209060020201600091509050806000018054600181600116156101000203166002900480601f01602080910402602001604051908101604052809291908181526020018280546001816001161561010002031660029004801561090c5780601f106108e15761010080835404028352916020019161090c565b820191906000526020600020905b8154815290600101906020018083116108ef57829003601f168201915b5050505050908060010154905082565b6000806000809054906101000a900473ffffffffffffffffffffffffffffffffffffffff1673ffffffffffffffffffffffffffffffffffffffff163373ffffffffffffffffffffffffffffffffffffffff1614151561097a57600080fd5b60001515600560019054906101000a900460ff16151514151561099c57600080fd5b600083511115156109ac57600080fd5b60001515600560009054906101000a900460ff1615151415156109ce57600080fd5b6003805490509150600090505b81811015610afe576003818154811015156109f257fe5b90600052602060002090600202016000016040518082805460018160011615610100020316600290048015610a5e5780601f10610a3c576101008083540402835291820191610a5e565b820191906000526020600020905b815481529060010190602001808311610a4a575b5050915050604051809103902060001916836040518082805190602001908083835b602083101515610aa55780518252602082019150602081019050602083039250610a80565b6001836020036101000a03801982511681845116808217855250505050505090500191505060405180910390206000191614151515610ae357600080fd5b610af760018261161090919063ffffffff16565b90506109db565b600360408051908101604052808581526020016000815250908060018154018082558091505090600182039060005260206000209060020201600090919290919091506000820151816000019080519060200190610b5d9291906120f8565b5060208201518160010155505050505050565b6000809054906101000a900473ffffffffffffffffffffffffffffffffffffffff1673ffffffffffffffffffffffffffffffffffffffff163373ffffffffffffffffffffffffffffffffffffffff16141515610bcb57600080fd5b60001515600560019054906101000a900460ff161515141515610bed57600080fd5b6000600380549050111515610c0157600080fd5b60001515600560009054906101000a900460ff161515141515610c2357600080fd5b6001600560006101000a81548160ff021916908315150217905550565b600560039054906101000a900460ff1681565b600281815481101515610c6257fe5b906000526020600020016000915054906101000a900473ffffffffffffffffffffffffffffffffffffffff1681565b6000809054906101000a900473ffffffffffffffffffffffffffffffffffffffff1673ffffffffffffffffffffffffffffffffffffffff163373ffffffffffffffffffffffffffffffffffffffff16141515610cec57600080fd5b60001515600560019054906101000a900460ff161515141515610d0e57600080fd5b60001515600560009054906101000a900460ff161515141515610d3057600080fd5b600073ffffffffffffffffffffffffffffffffffffffff168273ffffffffffffffffffffffffffffffffffffffff1614151515610d6c57600080fd5b60018060008473ffffffffffffffffffffffffffffffffffffffff1673ffffffffffffffffffffffffffffffffffffffff16815260200190815260200160002060000160006101000a81548160ff02191690831515021790555060018060008473ffffffffffffffffffffffffffffffffffffffff1673ffffffffffffffffffffffffffffffffffffffff16815260200190815260200160002060000160016101000a81548160ff02191690831515021790555080600160008473ffffffffffffffffffffffffffffffffffffffff1673ffffffffffffffffffffffffffffffffffffffff16815260200190815260200160002060010181600019169055505050565b6000809054906101000a900473ffffffffffffffffffffffffffffffffffffffff1673ffffffffffffffffffffffffffffffffffffffff163373ffffffffffffffffffffffffffffffffffffffff16141515610eca57600080fd5b60011515600560019054906101000a900460ff161515141515610eec57600080fd5b610ef461162c565b565b600560019054906101000a900460ff1681565b600560029054906101000a900460ff1681565b600560009054906101000a900460ff1681565b60008060009054906101000a900473ffffffffffffffffffffffffffffffffffffffff1673ffffffffffffffffffffffffffffffffffffffff163373ffffffffffffffffffffffffffffffffffffffff16141515610f8c57600080fd5b6000610f966112de565b111515610fa257600080fd5b610faa6112de565b90508173ffffffffffffffffffffffffffffffffffffffff166108fc829081150290604051600060405180830381858888f19350505050158015610ff2573d6000803e3d6000fd5b507f0afa9c75b545ad3f1d063ae4e86d64aed07c55eaa4813101cc53527bee17cc968282604051611024929190612662565b60405180910390a15050565b6000809054906101000a900473ffffffffffffffffffffffffffffffffffffffff1681565b60016020528060005260406000206000915090508060000160009054906101000a900460ff16908060000160019054906101000a900460ff16908060010154905083565b6110a1612178565b6110a9612192565b6000809054906101000a900473ffffffffffffffffffffffffffffffffffffffff1673ffffffffffffffffffffffffffffffffffffffff163373ffffffffffffffffffffffffffffffffffffffff1614151561110457600080fd5b6040805190810160405280898152602001888152509150604080519081016040528060408051908101604052808981526020018881525081526020016040805190810160405280878152602001868152508152509050600460408051908101604052808481526020018381525090806001815401808255809150509060018203906000526020600020906006020160009091929091909150600082015181600001600082015181600001556020820151816001015550506020820151816002016000820151816000019060026111db9291906121b9565b506020820151816002019060026111f39291906121b9565b5050505050505050505050505050565b60008060009054906101000a900473ffffffffffffffffffffffffffffffffffffffff1673ffffffffffffffffffffffffffffffffffffffff163373ffffffffffffffffffffffffffffffffffffffff1614151561126057600080fd5b60011515600560019054906101000a900460ff16151514151561128257600080fd5b60011515600560039054906101000a900460ff1615151415156112a457600080fd5b6001600560026101000a81548160ff0219169083151502179055506112d060065460028054905061172e565b90506112db81610f2f565b50565b60003073ffffffffffffffffffffffffffffffffffffffff1631905090565b6000809054906101000a900473ffffffffffffffffffffffffffffffffffffffff1673ffffffffffffffffffffffffffffffffffffffff163373ffffffffffffffffffffffffffffffffffffffff1614151561135857600080fd5b60001515600560019054906101000a900460ff16151514151561137a57600080fd5b60011515600560009054906101000a900460ff16151514151561139c57600080fd5b6001600560016101000a81548160ff0219169083151502179055506113bf6119a0565b565b60011515600160003373ffffffffffffffffffffffffffffffffffffffff1673ffffffffffffffffffffffffffffffffffffffff16815260200190815260200160002060000160009054906101000a900460ff16151514151561142357600080fd5b60011515600560009054906101000a900460ff16151514151561144557600080fd5b60001515600560019054906101000a900460ff16151514151561146757600080fd5b60011515611479878787878787611a98565b151514151561148757600080fd5b6000600160003373ffffffffffffffffffffffffffffffffffffffff1673ffffffffffffffffffffffffffffffffffffffff16815260200190815260200160002060000160006101000a81548160ff02191690831515021790555061151660016003898154811015156114f657fe5b90600052602060002090600202016001015461161090919063ffffffff16565b60038881548110151561152557fe5b90600052602060002090600202016001018190555060023390806001815401808255809150509060018203906000526020600020016000909192909190916101000a81548173ffffffffffffffffffffffffffffffffffffffff021916908373ffffffffffffffffffffffffffffffffffffffff1602179055505050505050505050565b6000809054906101000a900473ffffffffffffffffffffffffffffffffffffffff1673ffffffffffffffffffffffffffffffffffffffff163373ffffffffffffffffffffffffffffffffffffffff1614151561160457600080fd5b61160d81611c60565b50565b6000818301905082811015151561162357fe5b80905092915050565b6000809054906101000a900473ffffffffffffffffffffffffffffffffffffffff1673ffffffffffffffffffffffffffffffffffffffff163373ffffffffffffffffffffffffffffffffffffffff1614151561168757600080fd5b6000809054906101000a900473ffffffffffffffffffffffffffffffffffffffff1673ffffffffffffffffffffffffffffffffffffffff167ff8df31144d9c2f0f6b59d69b8b98abd5459d07f2742c4df920b25aae33c6482060405160405180910390a260008060006101000a81548173ffffffffffffffffffffffffffffffffffffffff021916908373ffffffffffffffffffffffffffffffffffffffff160217905550565b600080600080600092505b600a8312156118c857848681151561174d57fe5b06915060028281548110151561175f57fe5b9060005260206000200160009054906101000a900473ffffffffffffffffffffffffffffffffffffffff16905060001515600160008373ffffffffffffffffffffffffffffffffffffffff1673ffffffffffffffffffffffffffffffffffffffff16815260200190815260200160002060000160019054906101000a900460ff16151514156117f057809350611997565b8581604051602001808381526020018273ffffffffffffffffffffffffffffffffffffffff1673ffffffffffffffffffffffffffffffffffffffff166c01000000000000000000000000028152601401925050506040516020818303038152906040526040518082805190602001908083835b6020831015156118885780518252602082019150602081019050602083039250611863565b6001836020036101000a03801982511681845116808217855250505050505090500191505060405180910390206001900495508280600101935050611739565b5b60011561199657846118e560018461161090919063ffffffff16565b8115156118ee57fe5b06915060028281548110151561190057fe5b9060005260206000200160009054906101000a900473ffffffffffffffffffffffffffffffffffffffff16905060001515600160008373ffffffffffffffffffffffffffffffffffffffff1673ffffffffffffffffffffffffffffffffffffffff16815260200190815260200160002060000160019054906101000a900460ff161515141561199157809350611997565b6118c9565b5b50505092915050565b60008090505b600380549050811015611a95576003818154811015156119c257fe5b9060005260206000209060020201600101546003828154811015156119e357fe5b90600052602060002090600202016000016040518082805460018160011615610100020316600290048015611a4f5780601f10611a2d576101008083540402835291820191611a4f565b820191906000526020600020905b815481529060010190602001808311611a3b575b505091505060405180910390207f68d9a659a08004f0365762db8bf2a8f2eb81ee11a6b2eef5c8e70d4cc105d5b460405160405180910390a380806001019150506119a6565b50565b6000611aa2612178565b611aaa612192565b60008060408051908101604052808c81526020018b8152509350604080519081016040528060408051908101604052808c81526020018b815250815260200160408051908101604052808a8152602001898152508152509250600480549050915060009450600090505b81811015611c3f57611c1a8484600484815481101515611b3057fe5b906000526020600020906006020160000160408051908101604052908160008201548152602001600182015481525050600485815481101515611b6f57fe5b906000526020600020906006020160020160408051908101604052908160008201600280602002604051908101604052809291908260028015611bc7576020028201915b815481526020019060010190808311611bb3575b5050505050815260200160028201600280602002604051908101604052809291908260028015611c0c576020028201915b815481526020019060010190808311611bf8575b505050505081525050611d5a565b15611c2457600194505b611c3860018261161090919063ffffffff16565b9050611b14565b60011515851515141515611c5257600080fd5b505050509695505050505050565b600073ffffffffffffffffffffffffffffffffffffffff168173ffffffffffffffffffffffffffffffffffffffff1614151515611c9c57600080fd5b8073ffffffffffffffffffffffffffffffffffffffff166000809054906101000a900473ffffffffffffffffffffffffffffffffffffffff1673ffffffffffffffffffffffffffffffffffffffff167f8be0079c531659141344cd1fd0a4f28419497f9722a3daafe3b4186f6b6457e060405160405180910390a3806000806101000a81548173ffffffffffffffffffffffffffffffffffffffff021916908373ffffffffffffffffffffffffffffffffffffffff16021790555050565b60006060806002604051908082528060200260200182016040528015611d9a57816020015b611d876121f9565b815260200190600190039081611d7f5790505b5091506002604051908082528060200260200182016040528015611dd857816020015b611dc5612213565b815260200190600190039081611dbd5790505b50905086826000815181101515611deb57fe5b9060200190602002018190525084826001815181101515611e0857fe5b9060200190602002018190525085816000815181101515611e2557fe5b9060200190602002018190525083816001815181101515611e4257fe5b90602001906020020181905250611e598282611e65565b92505050949350505050565b600080600060606000611e7661223a565b600087518951141515611e8857600080fd5b8851955060068602945084604051908082528060200260200182016040528015611ec15781602001602082028038833980820191505090505b509350600092505b8583101561209e578883815181101515611edf57fe5b90602001906020020151600001518460006006860201815181101515611f0157fe5b90602001906020020181815250508883815181101515611f1d57fe5b90602001906020020151602001518460016006860201815181101515611f3f57fe5b90602001906020020181815250508783815181101515611f5b57fe5b90602001906020020151600001516000600281101515611f7757fe5b60200201518460026006860201815181101515611f9057fe5b90602001906020020181815250508783815181101515611fac57fe5b90602001906020020151600001516001600281101515611fc857fe5b60200201518460036006860201815181101515611fe157fe5b90602001906020020181815250508783815181101515611ffd57fe5b9060200190602002015160200151600060028110151561201957fe5b6020020151846004600686020181518110151561203257fe5b9060200190602002018181525050878381518110151561204e57fe5b9060200190602002015160200151600160028110151561206a57fe5b6020020151846005600686020181518110151561208357fe5b90602001906020020181815250508280600101935050611ec9565b6020826020870260208701600060086107d05a03f1905080600081146120c3576120c5565bfe5b508015156120d257600080fd5b60008260006001811015156120e357fe5b60200201511415965050505050505092915050565b828054600181600116156101000203166002900490600052602060002090601f016020900481019282601f1061213957805160ff1916838001178555612167565b82800160010185558215612167579182015b8281111561216657825182559160200191906001019061214b565b5b509050612174919061225d565b5090565b604080519081016040528060008152602001600081525090565b6080604051908101604052806121a6612282565b81526020016121b3612282565b81525090565b82600281019282156121e8579160200282015b828111156121e75782518255916020019190600101906121cc565b5b5090506121f5919061225d565b5090565b604080519081016040528060008152602001600081525090565b608060405190810160405280612227612282565b8152602001612234612282565b81525090565b602060405190810160405280600190602082028038833980820191505090505090565b61227f91905b8082111561227b576000816000905550600101612263565b5090565b90565b6040805190810160405280600290602082028038833980820191505090505090565b60006122b08235612817565b905092915050565b60006122c48235612837565b905092915050565b600082601f83011215156122df57600080fd5b81356122f26122ed8261277e565b612751565b9150808252602083016020830185838301111561230e57600080fd5b61231983828461284b565b50505092915050565b600061232e8235612841565b905092915050565b60006020828403121561234857600080fd5b6000612356848285016122a4565b91505092915050565b6000806040838503121561237257600080fd5b6000612380858286016122a4565b9250506020612391858286016122b8565b9150509250929050565b6000602082840312156123ad57600080fd5b600082013567ffffffffffffffff8111156123c757600080fd5b6123d3848285016122cc565b91505092915050565b6000602082840312156123ee57600080fd5b60006123fc84828501612322565b91505092915050565b60008060008060008060c0878903121561241e57600080fd5b600061242c89828a01612322565b965050602061243d89828a01612322565b955050604061244e89828a01612322565b945050606061245f89828a01612322565b935050608061247089828a01612322565b92505060a061248189828a01612322565b9150509295509295509295565b600080600080600080600060e0888a0312156124a957600080fd5b60006124b78a828b01612322565b97505060206124c88a828b01612322565b96505060406124d98a828b01612322565b95505060606124ea8a828b01612322565b94505060806124fb8a828b01612322565b93505060a061250c8a828b01612322565b92505060c061251d8a828b01612322565b91505092959891949750929550565b612535816127d7565b82525050565b612544816127b4565b61254d826127aa565b60005b8281101561257f57612563858351612638565b61256c826127ca565b9150602085019450600181019050612550565b5050505050565b61258f816127f7565b82525050565b61259e81612803565b82525050565b60006125af826127bf565b8084526125c381602086016020860161285a565b6125cc8161288d565b602085010191505092915050565b6040820160008201516125f06000850182612638565b5060208201516126036020850182612638565b50505050565b60808201600082015161261f600085018261253b565b506020820151612632604085018261253b565b50505050565b6126418161280d565b82525050565b600060208201905061265c600083018461252c565b92915050565b6000604082019050612677600083018561252c565b6126846020830184612638565b9392505050565b60006020820190506126a06000830184612586565b92915050565b60006060820190506126bb6000830186612586565b6126c86020830185612586565b6126d56040830184612595565b949350505050565b600060408201905081810360008301526126f781856125a4565b90506127066020830184612638565b9392505050565b600060c08201905061272260008301856125da565b61272f6040830184612609565b9392505050565b600060208201905061274b6000830184612638565b92915050565b6000604051905081810181811067ffffffffffffffff8211171561277457600080fd5b8060405250919050565b600067ffffffffffffffff82111561279557600080fd5b601f19601f8301169050602081019050919050565b6000819050919050565b600060029050919050565b600081519050919050565b6000602082019050919050565b600073ffffffffffffffffffffffffffffffffffffffff82169050919050565b60008115159050919050565b6000819050919050565b6000819050919050565b600073ffffffffffffffffffffffffffffffffffffffff82169050919050565b6000819050919050565b6000819050919050565b82818337600083830152505050565b60005b8381101561287857808201518184015260208101905061285d565b83811115612887576000848401525b50505050565b6000601f19601f83011690509190505600a265627a7a72305820b4cbb82235d581e481bf4d088201429f799181cf93e3f9341d2f35aa3cf26d206c6578706572696d656e74616cf50037",
  "source": "pragma solidity ^0.4.18;\npragma experimental ABIEncoderV2;\n\nimport \"./Ownable.sol\";\nimport \"./SafeMath.sol\";\nimport \"./pairing.sol\";\n\ncontract votelottery is Ownable {\n    using Pairing for *;\n    using SafeMath for uint256;\n    \n    struct Voter {\n        bool canVote;\n        bool canClaim;\n        bytes32 hashed_ticket;\n    }\n    mapping(address => Voter) public voters;\n    address [] public tickets;\n    struct candidate {\n        string name;\n        uint256 votes;\n    }\n    candidate[] public candidates;\n    \n    struct key {\n        Pairing.G1Point g1;\n        Pairing.G2Point g2;\n    }\n    key [] public keys;\n    \n    bool public vote_started;\n    bool public vote_is_over;\n    bool public claim_is_over;\n    bool public at_least_one_claim;\n    \n    uint256 random_seed;\n    \n    modifier vote_not_over() {\n        require(vote_is_over == false);\n        _;\n    }\n    \n    constructor () public {\n        vote_started = false;\n        vote_is_over = false;\n        claim_is_over = false;\n        at_least_one_claim = false;\n    }\n    \n    event VoteResult(\n        string indexed name,\t\n        uint indexed votes\t\n    );\n    \n    event winnerResult(address _address, uint _amount);\n    \n    function mulp(uint256 px, uint256 py, uint s) internal returns (Pairing.G1Point r) {\n        Pairing.G1Point memory g1 = Pairing.G1Point(px, py);\n        r = Pairing.mulp(g1, s);\n    }\n    function negate(uint256 px, uint256 py) internal returns (Pairing.G1Point r) {\n        Pairing.G1Point memory g1 = Pairing.G1Point(px, py);\n        r = Pairing.negate(g1);\n    }\n    \n    function addKey(uint256 p1x, uint256 p1y,\n    uint256 p2x1, uint256 p2x2, uint256 p2y1, uint256 p2y2) onlyOwner public {\n        Pairing.G1Point memory g1 = Pairing.G1Point(p1x, p1y);\n        Pairing.G2Point memory g2 = Pairing.G2Point([p2x1,p2x2],[p2y1,p2y2]);\n        keys.push(key(g1, g2));\n    }\n    function verify(uint256 p1x, uint256 p1y,\n    uint256 p2x1, uint256 p2x2, uint256 p2y1, uint256 p2y2) internal returns (bool res) {\n        Pairing.G1Point memory g1 = Pairing.G1Point(p1x, p1y);\n        Pairing.G2Point memory g2 = Pairing.G2Point([p2x1,p2x2],[p2y1,p2y2]);\n        uint256 length = keys.length;\n        res = false;\n        for (uint256 i = 0; i < length; i = i.add(1)) {\n            if (Pairing.pairingProd2(g1, g2, keys[i].g1, keys[i].g2))\n            {\n                res = true;\n            }\n        }\n        require(res == true);\n    }\n    \n    function renounceOwnership() public onlyOwner {\n        require(vote_is_over == true);\n        super.renounceOwnership();\n    }\n    \n    function () external onlyOwner vote_not_over payable {\n        require(vote_started == false);\n    }\n    \n    function balance() public constant returns(uint256)  {\n        return address(this).balance;\n    } \n    \n   function addCandidate(string candidate_name) onlyOwner vote_not_over public {\n        require(bytes(candidate_name).length > 0);\n        require(vote_started == false);\n        uint256 length = candidates.length;\n        for (uint256 i = 0; i < length; i = i.add(1)) {\n            require(keccak256(bytes(candidate_name)) != keccak256(bytes(candidates[i].name)));\n        }\n        candidates.push(candidate(candidate_name, 0));\n    }\n    \n    function addVoter(address new_voter, bytes32 _hashed_ticket) onlyOwner vote_not_over public {\n        require(vote_started == false);\n        require(new_voter != address(0));\n        voters[new_voter].canVote = true;\n        voters[new_voter].canClaim = true;\n        voters[new_voter].hashed_ticket = _hashed_ticket;\n    }\n    \n   function startVote() onlyOwner vote_not_over public {\n        require(candidates.length > 0);\n        require(vote_started == false);\n        vote_started = true;\n    }\n    \n   function endVote() onlyOwner vote_not_over public {\n        require(vote_started == true);\n        vote_is_over = true;\n        \n        getResult();\n    }\n    \n    function claimTicket(uint256 ticket) public {\n        require(vote_is_over == true);\n        require(claim_is_over == false);\n        require(voters[msg.sender].canClaim == true);\n        require(voters[msg.sender].hashed_ticket == keccak256(abi.encodePacked(msg.sender, ticket)));\n        voters[msg.sender].canClaim = false;\n        random_seed = random_seed ^ ticket;\n        at_least_one_claim = true;\n    }\n    \n    function endClaim() onlyOwner public {\n        require(vote_is_over == true);\n        require(at_least_one_claim == true);\n        claim_is_over = true;\n\n        address winner = findWinner(random_seed, tickets.length);\n        transferTotalEtherToWinner(winner);\n    }\n    \n    function findWinner(uint256 _random_seed, uint256 num_tickets) internal view returns (address) {\n        for (int i = 0; i < 10; i++) {\n            uint256 winner_idx = _random_seed % num_tickets;\n            address winner_addr = tickets[winner_idx];\n            if (voters[winner_addr].canClaim == false) {\n                // we found a winner \n                return winner_addr;\n            }\n            // this person could have been a winner but didn't claim\n            _random_seed = uint256(keccak256(abi.encodePacked(_random_seed, winner_addr)));\n            continue;\n        }\n        // linear search until winner is found\n        while (true) {\n            winner_idx = winner_idx.add(1) % num_tickets;\n            winner_addr = tickets[winner_idx];\n            if (voters[winner_addr].canClaim == false) {\n                return winner_addr;\n            }\n        }\n    }\n\n    modifier canVote() {\n        require(voters[msg.sender].canVote == true);\n        require(vote_started == true);\n        _;\n    }\n    \n    //    (candidates[candidate]) .\n    function vote(uint256 candidate_, uint256 p1x, uint256 p1y,\n    uint256 p2x1, uint256 p2x2, uint256 p2y1, uint256 p2y2) canVote vote_not_over public {\n        require(verify(p1x,p1y,p2x1,p2x2,p2y1,p2y2) == true);\n        voters[msg.sender].canVote = false;\n        //          \n        candidates[candidate_].votes = candidates[candidate_].votes.add(1);\n        tickets.push(msg.sender);\n    }\n    \n    function transferTotalEtherToWinner(address _winner) public onlyOwner payable {\n        \n        require(balance() > 0);\n        uint256 amount = balance();\n        _winner.transfer(amount);\n        emit winnerResult(_winner, amount);\n    }\n    \n    function getResult() private {\t\n        for(uint256 p = 0; p < candidates.length ; p++) {\t\n            emit VoteResult(candidates[p].name, candidates[p].votes);    \t\n        }\n    }\n}\n",
  "sourcePath": "/Users/lmeng/icash/contracts/votelottery.sol",
  "compiler": {
    "name": "solc",
    "version": "0.4.24+commit.e67f0147.Emscripten.clang"
  },
  "schemaVersion": "2.0.1",
  "updatedAt": "2018-07-30T04:37:08.387Z"
}